:020000040800F2
:100000000080012041350108EB130008F9130008B6
:10001000FF130008051400080B140008000000007E
:1000200000000000000000000000000011140008A3
:100030001F140008000000002D1400083B140008E5
:100040008935010889350108893501088935010894
:100050008935010889350108014900080D47000864
:1000600089350108D544000889350108893501081A
:100070008935010889350108893501088935010864
:1000800089350108893501084914000889350108B6
:100090008935010889350108893501088935010844
:1000A0008935010889350108893501088935010834
:1000B0008935010889350108893501088935010824
:1000C0008935010889350108893501088935010814
:1000D0008935010889350108893501088935010804
:1000E00089350108893501088935010889350108F4
:1000F00089350108893501088935010889350108E4
:1001000089350108893501088935010889350108D3
:1001100089350108893501087514000889350108F9
:1001200089350108893501088935010889350108B3
:1001300089350108893501088935010889350108A3
:1001400000000000000000000000000000000000AF
:100150008935010889350108893501088935010883
:100160008935010889350108893501088935010873
:100170008935010889350108893501088935010863
:0401800089350108B4
:1001900010B5054C237833B9044B13B10448AFF3C1
:1001A00000800123237010BD8802002000000000A1
:1001B000A082010808B5034B1BB103490348AFF304
:1001C000008008BD000000008C020020A082010811
:1001D00081F0004102E000BF83F0004330B54FEAF8
:1001E00041044FEA430594EA050F08BF90EA020F65
:1001F0001FBF54EA000C55EA020C7FEA645C7FEAF8
:10020000655C00F0E2804FEA5454D4EB5555B8BF1A
:100210006D420CDD2C4480EA020281EA030382EA8B
:10022000000083EA010180EA020281EA0303362D1D
:1002300088BF30BD11F0004F4FEA01314FF4801CF0
:100240004CEA113102D0404261EB410113F0004F02
:100250004FEA03334CEA133302D0524263EB4303B9
:1002600094EA050F00F0A780A4F10104D5F1200E57
:100270000DDB02FA0EFC22FA05F2801841F10001B2
:1002800003FA0EF2801843FA05F359410EE0A5F186
:1002900020050EF1200E012A03FA0EFC28BF4CF0B7
:1002A000020C43FA05F3C01851EBE37101F000456D
:1002B00007D54FF0000EDCF1000C7EEB00006EEB7A
:1002C0000101B1F5801F1BD3B1F5001F0CD3490804
:1002D0005FEA30004FEA3C0C04F101044FEA44525B
:1002E00012F5800F80F09A80BCF1004F08BF5FEAE2
:1002F000500C50F1000041EB045141EA050130BDC2
:100300005FEA4C0C404141EB0101013C28BFB1F5D3
:10031000801FE9D291F0000F04BF01460020B1FA1E
:1003200081F308BF2033A3F10B03B3F120020CDAF1
:100330000C3208DD02F1140CC2F10C0201FA0CF0CF
:1003400021FA02F10CE002F11402D8BFC2F1200C34
:1003500001FA02F120FA0CFCDCBF41EA0C019040EA
:10036000E41AA2BF01EB0451294330BD6FEA040433
:100370001F3C1CDA0C340EDC04F11404C4F120021E
:1003800020FA04F001FA02F340EA030021FA04F330
:1003900045EA030130BDC4F10C04C4F1200220FA87
:1003A00002F001FA04F340EA0300294630BD21FAC5
:1003B00004F0294630BD94F0000F83F4801306BF8B
:1003C00081F480110134013D4EE77FEA645C18BF7F
:1003D0007FEA655C29D094EA050F08BF90EA020F16
:1003E00005D054EA000C04BF1946104630BD91EA0E
:1003F000030F1EBF0021002030BD5FEA545C05D111
:100400004000494128BF41F0004130BD14F580044F
:100410003CBF01F5801130BD01F0004545F0FE41C3
:1004200041F470014FF0000030BD7FEA645C1ABFF8
:10043000194610467FEA655C1CBF0B46024650EA2F
:10044000013406BF52EA033591EA030F41F400215B
:1004500030BD00BF90F0000F04BF0021704730B5E1
:100460004FF4806404F132044FF000054FF00001B6
:1004700050E700BF90F0000F04BF0021704730B577
:100480004FF4806404F1320410F0004548BF40424C
:100490004FF000013EE700BF42004FEAE2014FEAA1
:1004A00031014FEA02701FBF12F07F4393F07F4F7C
:1004B00081F06051704732F07F4208BF704793F07F
:1004C0007F4F04BF41F40021704730B54FF4607492
:1004D00001F0004521F000411CE700BF50EA010295
:1004E00008BF704730B54FF000050AE050EA01023E
:1004F00008BF704730B511F0004502D5404261EBAE
:1005000041014FF4806404F132045FEA915C3FF4EE
:10051000D8AE4FF003025FEADC0C18BF03325FEA8B
:10052000DC0C18BF033202EBDC02C2F1200300FA3C
:1005300003FC20FA02F001FA03FE40EA0E0021FA61
:1005400002F11444BDE600BF70B54FF0FF0C4CF44F
:10055000E06C1CEA11541DBF1CEA135594EA0C0F01
:1005600095EA0C0F00F0DEF82C4481EA030621EA3C
:100570004C5123EA4C5350EA013518BF52EA033577
:1005800041F4801143F4801338D0A0FB02CE4FF029
:100590000005E1FB02E506F00042E0FB03E54FF059
:1005A0000006E1FB03569CF0000F18BF4EF0010E51
:1005B000A4F1FF04B6F5007F64F5407404D25FEA4D
:1005C0004E0E6D4146EB060642EAC62141EA555100
:1005D0004FEAC52040EA5E504FEACE2EB4F1FD0C42
:1005E00088BFBCF5E06F1ED8BEF1004F08BF5FEAC0
:1005F000500E50F1000041EB045170BD06F0004672
:1006000046EA010140EA020081EA0301B4EB5C041E
:10061000C2BFD4EB0C0541EA045170BD41F4801116
:100620004FF0000E013C00F3AB8014F1360FDEBF3B
:10063000002001F0004170BDC4F10004203C35DA17
:100640000C341BDC04F11404C4F1200500FA05F39A
:1006500020FA04F001FA05F240EA020001F000423B
:1006600021F0004110EBD37021FA04F642EB0601B1
:100670005EEA430E08BF20EAD37070BDC4F10C04DB
:10068000C4F1200500FA04F320FA05F001FA04F29F
:1006900040EA020001F0004110EBD37041F100018B
:1006A0005EEA430E08BF20EAD37070BDC4F1200596
:1006B00000FA05F24EEA020E20FA04F301FA05F2FE
:1006C00043EA020321FA04F001F0004121FA04F2A6
:1006D00020EA020000EBD3705EEA430E08BF20EA76
:1006E000D37070BD94F0000F0FD101F000464000B0
:1006F00041EB010111F4801F08BF013CF7D041EA32
:10070000060195F0000F18BF704703F00046520035
:1007100043EB030313F4801F08BF013DF7D043EA06
:100720000603704794EA0C0F0CEA135518BF95EABC
:100730000C0F0CD050EA410618BF52EA4306D1D143
:1007400081EA030101F000414FF0000070BD50EA62
:10075000410606BF1046194652EA430619D094EAEC
:100760000C0F02D150EA013613D195EA0C0F05D1D6
:1007700052EA03361CBF104619460AD181EA03012A
:1007800001F0004141F0FE4141F470014FF00000E2
:1007900070BD41F0FE4141F4780170BD70B54FF07D
:1007A000FF0C4CF4E06C1CEA11541DBF1CEA1355FD
:1007B00094EA0C0F95EA0C0F00F0A7F8A4EB0504DF
:1007C00081EA030E52EA03354FEA013100F08880D6
:1007D0004FEA03334FF0805545EA131343EA12639F
:1007E0004FEA022245EA111545EA10654FEA002654
:1007F0000EF000419D4208BF964244F1FD0404F50D
:10080000407402D25B084FEA3202B61A65EB030568
:100810005B084FEA32024FF480104FF4002CB6EB25
:10082000020E75EB030E22BFB61A754640EA0C00A5
:100830005B084FEA3202B6EB020E75EB030E22BFE5
:10084000B61A754640EA5C005B084FEA3202B6EB26
:10085000020E75EB030E22BFB61A754640EA9C00E5
:100860005B084FEA3202B6EB020E75EB030E22BFB5
:10087000B61A754640EADC0055EA060E18D04FEA73
:10088000051545EA16754FEA06164FEAC30343EA13
:1008900052734FEAC2025FEA1C1CC0D111F4801FE0
:1008A0000BD141EA00014FF000004FF0004CB6E7D9
:1008B00011F4801F04BF01430020B4F1FD0C88BF78
:1008C000BCF5E06F3FF6AFAEB5EB030C04BFB6EB83
:1008D000020C5FEA500C50F1000041EB045170BD76
:1008E0000EF0004E4EEA113114EB5C04C2BFD4EBA3
:1008F0000C0541EA045170BD41F480114FF0000E27
:10090000013C90E645EA060E8DE60CEA135594EAA2
:100910000C0F08BF95EA0C0F3FF43BAF94EA0C0FA5
:100920000AD150EA01347FF434AF95EA0C0F7FF41A
:1009300025AF104619462CE795EA0C0F06D152EA6E
:1009400003353FF4FDAE1046194622E750EA410652
:1009500018BF52EA43067FF4C5AE50EA41047FF463
:100960000DAF52EA43057FF4EBAE12E74A0011D215
:1009700012F5001211D20DD56FF47873B3EB6252F9
:100980000ED44FEAC12343F0004343EA505323FA05
:1009900002F070474FF00000704750EA013002D17A
:1009A0004FF0FF3070474FF0000070474FEA4102B0
:1009B000B2F1E04324BFB3F5001CDCF1FE5C0DD9BD
:1009C00001F0004C4FEAC0024CEA5070B2F1004F07
:1009D00040EB830008BF20F00100704711F0804F0A
:1009E00021D113F13872BCBF01F00040704741F4CF
:1009F00080114FEA5252C2F11802C2F1200C10FAD3
:100A00000CF320FA02F018BF40F001004FEAC123B6
:100A10004FEAD32303FA0CFC40EA0C0023FA02F35A
:100A20004FEA4303CCE77FEA625307D150EA013330
:100A30001EBF4FF0FE4040F44000704701F0004000
:100A400040F0FE4040F40000704700BF034613F83A
:100A5000012B002AFBD1181A013870470000000052
:100A600001F0FF01102A2BDB10F0070F08D010F85F
:100A7000013B013A8B422DD010F0070F42B3F6D163
:100A8000F0B441EA012141EA014122F007047FF07C
:100A900000070023F0E80256083C85EA010586EAD3
:100AA000010685FA47F5A3FA87F586FA47F6A5FA0F
:100AB00087F68EB9EED1F0BC01F0FF0102F007021B
:100AC00032B110F8013B013A83EA010313B1F8D1C6
:100AD0000020704701387047002D06BF35460338A7
:100AE000073815F0010F07D1013015F4807F02BFE0
:100AF000013015F4C03F0130F0BC0138704700BF31
:100B00004FF0FF3C06E000BF4FF0010C02E000BFD9
:100B10004FF0010C4DF804CD4FEA410C7FEA6C5CBC
:100B20004FEA430C18BF7FEA6C5C1BD001B050EA5F
:100B3000410C0CBF52EA430C91EA030F02BF90EA4A
:100B4000020F0020704710F1000F91EA030F58BF09
:100B5000994208BF90422CBFD8176FEAE37040F06B
:100B6000010070474FEA410C7FEA6C5C02D150EA09
:100B7000013C07D14FEA430C7FEA6C5CD6D152EAC4
:100B8000033CD3D05DF8040B704700BF8446104689
:100B900062468C461946634600E000BF01B5FFF788
:100BA000B7FF002848BF10F1000F01BD4DF808ED58
:100BB000FFF7F4FF0CBF012000205DF808FB00BF29
:100BC0004DF808EDFFF7EAFF34BF012000205DF883
:100BD00008FB00BF4DF808EDFFF7E0FF94BF0120D0
:100BE00000205DF808FB00BF4DF808EDFFF7CEFFD1
:100BF00094BF012000205DF808FB00BF4DF808ED10
:100C0000FFF7C4FF34BF012000205DF808FB00BFE0
:100C10004FEA410C7FEA6C5C02D150EA013C0AD1F8
:100C20004FEA430C7FEA6C5C02D152EA033C02D1EA
:100C30004FF0000070474FF0010070474FEA41024B
:100C400012F5001215D211D56FF47873B3EB62521E
:100C500012D94FEAC12343F0004343EA505311F045
:100C6000004F23FA02F018BF404270474FF00000D7
:100C7000704750EA013005D111F0004008BF6FF015
:100C8000004070474FF00000704700BF38B50022A9
:100C9000002304460D46FFF793FF28B92046294656
:100CA000BDE8384000F00AB8204605F1004100F0E8
:100CB00005F8404261EB410138BD00BFD0B50C4B97
:100CC000002206460F46FFF73FFCFFF74FFE0446A3
:100CD000FFF7C0FB074B0022FFF736FC02460B462E
:100CE00030463946FFF778FAFFF740FE2146D0BD7F
:100CF0000000F03D0000F04180B582B000AF00F090
:100D00001FF801210B480FF0DEFC01210A480FF00B
:100D1000DAFC012109480FF0D6FC00F019F800F0C8
:100D200097F80346FB7100F0E7FAFB79184608379D
:100D3000BD4680BD0E0014000F001400100014000A
:100D400080B400AF00BFBD465DF8047B7047000073
:100D500080B582B000AF3B4600221A605A60012184
:100D600031480FF0B0FC012130480FF0ACFC0121FC
:100D70002F480FF0A8FC01212E480FF0A4FC012100
:100D80002D480FF0A0FC01214FF4C0100FF09BFC88
:100D90003B46184611F0E8F80121284811F04FF9B8
:100DA0000123FB7100233B7104237B710823BB717A
:100DB00004233B603B461946214811F039F80823CB
:100DC000BB7102233B603B4619461E4811F030F8C8
:100DD0000823BB714FF460533B603B4619461A48E9
:100DE00011F026F80023BB714FF4E0633B603B46F3
:100DF0001946164811F01CF80023BB7102233B6012
:100E00003B4619460E4811F013F80823BB714FF406
:100E100080733B603B461946094811F009F800BF52
:100E20000837BD4680BD00BF02001800030018004F
:100E30000400180005001800060018000102103414
:100E40000008014000100140000C01400014014066
:100E500080B586B000AF0121274811F0F0F80420DA
:100E60000FF0D6FE0A200FF027FF00F049F810F02F
:100E70002FF810F02BF900BF10F03EF90346012BBC
:100E8000FAD01E4810F03CF81C4B01221A701B4B84
:100E900001225A71194800F079F90346002B01D15B
:100EA000002324E03B1D184610F044FC01237B7313
:100EB0000123FB7301233B7501233B7101237B71EC
:100EC0000123FB710123BB732023BB7120233B72E1
:100ED0000123FB723B1D184610F06AFC01210E2015
:100EE00010F0B6FD0121062010F0B2FD01231846D6
:100EF0001837BD4680BD00BF01011234A402002096
:100F000080B582B000AF3B4600221A605A603B4673
:100F1000184611F029F80123FB711023BB7100233F
:100F20003B714FF480733B6004237B713B46194651
:100F30000B4810F07DFF4FF48071094811F058F80C
:100F4000022012F0B1FA4FF48071054811F041F817
:100F5000022012F073FA00BF0837BD4680BD00BF03
:100F60000010014080B584B000AF0023FB80002357
:100F7000FB600023BB604FF400420021002010F012
:100F800005F90346002B01D1002330E00023BB60AC
:100F900002E0BB680133BB60BB68174A9342F8D9D3
:100FA000FB680133FB60BB1D1A460021002010F0D6
:100FB0003BF90346002B01D1002318E0FB881BB24C
:100FC000002B03DAFB680C4A9342E9D90023BB608B
:100FD00002E0BB680133BB60BB68074A9342F8D9A3
:100FE000FB68064A934201D1002300E00123184622
:100FF0001037BD4680BD00BFFEFF0F00FFFF0F0092
:1010000080B584B000AF0346FB710B46BB7113463D
:101010007B7100237B810023FB60FB79012B40F077
:101020008480FB680133FB6007F10A031A46012143
:10103000002010F0F9F80346002B01D100239CE0BA
:101040007B8903F00403002B03D1FB684D4A9342D4
:10105000E7D9FB684C4A934201D100238DE000237D
:10106000FB604FF480520021002010F08FF80346FF
:10107000002B01D1002380E0FB680133FB6007F106
:101080000A031A460121002010F0CEF80346002B77
:1010900001D1002371E07B8903F02003002B03D1F1
:1010A000FB68384A9342E7D9FB68374A934201D13B
:1010B000002362E007F10A031A461121002010F014
:1010C000B3F80346002B01D1002356E07B891BB205
:1010D000002B06DA012010F02BFA012010F03EFA66
:1010E0004AE07B8903F48043002B06D0012010F0F6
:1010F0001FFA002010F032FA3EE07B8903F400531F
:10110000002B06D0002010F013FA012010F026FA70
:1011100032E07B8903F48053002B2DD0002010F0A7
:1011200007FA002010F01AFA26E0BB791B021AB267
:101130007B795B031BB213431BB29BB21A4600219F
:10114000002010F023F80346002B01D1002314E007
:101150007B79012B03D1012010F0EAF902E0002095
:1011600010F0E6F9BB79012B03D1012010F0F6F95C
:1011700002E0002010F0F2F9012318461037BD46B6
:1011800080BD00BFFEFF0F00FFFF0F0080B582B0E3
:1011900000AF78600FF0F0FEFFF7E4FE0346002B8F
:1011A00001D1002303E078680FF050FF01231846B7
:1011B0000837BD4680BD80B582B000AF3B1D1A46E2
:1011C0000121002010F030F80346002B01D100234C
:1011D00006E0BB889B109BB203F00103FB80FB88F9
:1011E00018460837BD4680BD80B584B000AF786032
:1011F0000023FB817B68BB60FFF7DDFF0346FB81BB
:10120000FB89002B06D0022012F086F8002012F095
:10121000A7F805E0002012F07FF8022012F0A0F8F5
:10122000BB6893F8353003F00403002B09D1FB8928
:10123000002B06D00E4813F00DF9B86808F06EFCCC
:1012400011E0BB6893F835309B0803F00103DBB273
:10125000002B08D0FB89002B05D1064813F0FAF8C3
:10126000B86808F083FC00BF1037BD4680BD00BFE2
:10127000B8820108C482010880B582B000AF7860EE
:101280007B6893F835309B0803F00103DBB2002B39
:1012900003D0786808F0AAFB02E0786808F00CFC3C
:1012A00000BF0837BD4680BD80B582B000AF786012
:1012B0007B6893F835309B0803F00103DBB2002B09
:1012C0000FD00C4B1B780B4A91790A4A527A184678
:1012D000FFF796FE4FF4967012F0E6F80FF02AFF33
:1012E00001E00FF03DFF7868FFF7C6FF00BF083749
:1012F000BD4680BDA402002080B586B000AF3B1D76
:1013000000221A605A609A60DA601A610121154859
:101310000FF0D9F93B1D18460FF090FBBB68124A3D
:10132000A2FB03235B0B013B1A4663210F4811F01C
:1013300016FA00210D4811F029FA012201210B486B
:1013400011F0D6FB032011F043F8002200213620D3
:1013500011F00FF80121054811F0CDF900BF183741
:10136000BD4680BD04001C005917B7D100100040D5
:1013700080B500AF0FF024F9012101200FF020FA11
:1013800000BF0FF07BF90346002BFAD00122312178
:1013900002200FF0CDFA00200FF078FC012102208E
:1013A0000FF00EFA00BF19200FF040F90346012B91
:1013B000F9D100200FF058FA04200FF081FA042030
:1013C0000FF068FA01200FF045FC02200FF0FEFA42
:1013D00000BF0FF025FB0346022BFAD100200FF0CF
:1013E00039FC11F0D9FC00BF80BD80B400AF00BF54
:1013F000BD465DF8047B704780B400AFFEE780B463
:1014000000AFFEE780B400AFFEE780B400AFFEE7B8
:1014100080B400AF00BFBD465DF8047B704780B468
:1014200000AF00BFBD465DF8047B704780B400AFDD
:1014300000BFBD465DF8047B704780B400AF00BFBD
:10144000BD465DF8047B704780B500AF01210748B9
:101450000FF054F80346002B06D0012103480FF08B
:10146000A0F8034B01221A8000BF80BD0024014078
:101470001E19002080B500AF0121074811F059FB6B
:101480000346002B05D004F0EBF80121024811F0CF
:101490006FFB00BF80BD00BF0010004080B584B06E
:1014A00000AF012138480FF00EF9012137480FF045
:1014B0000AF900233B7318237B731023BB730123AA
:1014C000FB731023BB6007F108031946304810F086
:1014D000AFFC0223FB7300233B730823BB7304237D
:1014E000BB6004237B7307F108031946284810F0FA
:1014F0009FFC0223FB7300233B730023BB73202359
:10150000BB6004237B7307F108031946204810F0E1
:101510008FFC0223FB7300233B730823BB73402320
:10152000BB6004237B7307F108031946184810F0C9
:101530007FFC1021164810F04CFD012115480FF0DA
:10154000C2F83B46184610F06FFF00233B700123A2
:101550007B700223BB700023FB7000233B710123CF
:101560007B710123BB710123FB713B4619464FF090
:10157000402010F07BFF01214FF0402011F047F890
:1015800000BF1037BD4680BD0600180001001400E2
:101590000018014010001C0080B588B000AFF86052
:1015A000B9607A60484B3B61BB681B0BFB61BB6851
:1015B0009BB2C3F30B037B837B8BC3F580533B83CD
:1015C0003B8B7A689A4201D87B683B83FB691B039B
:1015D0004FF480521946386900F07AF80023FB82F4
:1015E0000AE0FB8A3A6913441B781946374812F01F
:1015F000ABFEFB8A0133FB82FB8A0F2BF1D9002360
:10160000FB820BE07A8BFB8A13441A463B69134436
:101610001B78FF2B07D1FB8A0133FB82FA8A3B8BB5
:101620009A42EFD300E000BFFA8A3B8B9A4220D265
:10163000F86900F083F80023FB820DE0FB8AFA686A
:101640001A44F98A7B8B0B4419463B690B44127888
:101650001A70FB8A0133FB82FA8A3B8B9A42EDD3E4
:10166000FB691B034FF480521946386900F096F865
:1016700005E03B8B1A46B968F86800F08FF83B8BA1
:101680007A689A421BD0FB690133FB6100237B839C
:101690003B8BFA681344FB603B8BBA681344BB6016
:1016A0003B8B7A68D31A7B607B68B3F5805F03D984
:1016B0004FF480533B8389E77B683B8386E700BF19
:1016C00000BF2037BD4680BDB4020020D48201088F
:1016D00080B586B000AFF860B9607A601021164816
:1016E00010F086FC032000F0A9F9BB681B0CDBB2EC
:1016F000184600F0A3F9BB681B0ADBB2184600F0DD
:101700009DF9BB68DBB2184600F098F97968F86873
:1017100000F0EAF800237B6102E07B6901337B6122
:101720007A697B689A42F8D31021034810F051FC83
:1017300000BF1837BD4680BD0018014080B582B09B
:1017400000AF78607B681B037B6000F033F900F02A
:1017500007F91021104810F04BFC202000F06EF922
:101760007B681B0CDBB2184600F068F97B681B0A2B
:10177000DBB2184600F062F97B68DBB2184600F075
:101780005DF91021044810F024FC00F0E9F800BFD6
:101790000837BD4680BD00BF0018014080B586B047
:1017A00000AFF860B9607A60BB689BB2DBB29BB2F5
:1017B000C3F58073FB82FB8A7A689A4201D87B6802
:1017C000FB82FB8A1A46B968F86800F021F8FB8AA8
:1017D0007A689A4216D0FB8AFA681344FB60FB8A47
:1017E000BA681344BB60FB8A7A68D31A7B607B6853
:1017F000B3F5807F03D94FF48073FB82E1E77B6808
:10180000FB82DEE700BF00BF1837BD4680BD000089
:1018100080B584B000AFF860B9607A607B68002B57
:1018200027D07B68B3F5807F23D800F0C3F8102160
:10183000124810F0DDFB022000F000F9BB681B0C21
:10184000DBB2184600F0FAF8BB681B0ADBB2184698
:1018500000F0F4F8BB68DBB2184600F0EFF87968E6
:10186000F86800F00DF81021044810F0B2FB00F009
:1018700077F800BF1037BD4680BD00BF001801409B
:1018800080B584B000AF7860396023E000BF0221EA
:101890004FF0402010F016FF0346002BF7D07B6876
:1018A0001B789BB219464FF0402010F0EFFE00BFAE
:1018B00001214FF0402010F005FF0346002BF7D028
:1018C0004FF0402010F0F1FE0346DBB2FB737B6863
:1018D00001337B603B685A1E3A60002BD6D100BFB3
:1018E00000BF1037BD4680BD80B584B000AF7860C2
:1018F0003960A523FB733968184812F025FD23E0F1
:1019000000BF02214FF0402010F0DCFE0346002B08
:10191000F7D0FB7B9BB219464FF0402010F0B6FE8B
:1019200000BF01214FF0402010F0CCFE0346002BF9
:10193000F7D04FF0402010F0B8FE0346DAB27B68D3
:101940001A707B6801337B603B685A1E3A60002B3B
:10195000D6D100BF00BF1037BD4680BDDC82010874
:1019600080B500AF00BF00F009F8034603F00103A3
:10197000012BF8D000BF00BF80BD000080B582B051
:1019800000AF0023FB711021094810F031FB052046
:1019900000F054F800F085F80346FB71102104486C
:1019A00010F017FBFB7918460837BD4680BD00BF15
:1019B0000018014080B500AF1021064810F018FB58
:1019C000062000F03BF81021024810F002FB00BF97
:1019D00080BD00BF0018014080B582B000AF002379
:1019E000FB801021144810F003FB902000F026F833
:1019F000002000F023F8002000F020F8002000F084
:101A00001DF800F04EF803461B021AB2B7F9063073
:101A100013431BB2FB8000F044F803469AB2FB88E4
:101A20001343FB801021044810F0D3FAFB881846BA
:101A30000837BD4680BD00BF0018014080B584B0A6
:101A400000AF0346FB7100214FF0402010F0F4FD81
:101A500000214FF0402010F004FEFB799BB21946A4
:101A60004FF0402010F012FE00BF01214FF0402047
:101A700010F028FE0346002BF7D04FF0402010F066
:101A800014FE0346FB7300BF80214FF0402010F08E
:101A900019FE0346002BF7D1FB7B18461037BD46D5
:101AA00080BD80B500AFA520FFF7C8FF03461846EC
:101AB00080BD000080B483B000AF064BDB68FB80C4
:101AC000054BDB68BB8000BF0C37BD465DF8047B6F
:101AD000704700BF001801400014014080B582B07B
:101AE00000AF012129480EF0EEFD012128480EF03B
:101AF000EAFD3B46184610F037FA4FF4E0533B60DE
:101B00001023BB7100233B7104237B710223FB7103
:101B10003B4619461F4810F08BF940F2FF733B60BB
:101B20003B4619461C4810F083F94FF480511A487F
:101B300010F05EFA0223FB7100233B711023BB718E
:101B40004FF480533B6004237B713B461946124897
:101B500010F06EF94FF440610E4810F049FA02237C
:101B6000FB7100233B711023BB714FF400633B609A
:101B700004237B713B461946084810F059F9FFF7DA
:101B800099FF00BF0837BD4680BD00BF04001800A4
:101B90000500180000100140001401400018014029
:101BA00080B582B000AF0346FB714FF480613548C9
:101BB00010F01EFAFB7903F00103DBB21A46012193
:101BC000314810F024FAFB795B10DBB203F001031B
:101BD000DBB21A4602212C4810F019FAFB799B104F
:101BE000DBB203F00103DBB21A460421264810F0F1
:101BF0000EFAFB79DB10DBB203F00103DBB21A460D
:101C00000821214810F003FAFB791B11DBB203F025
:101C10000103DBB21A4610211B4810F0F8F9FB79DA
:101C20005B11DBB203F00103DBB21A462021164838
:101C300010F0EDF9FB799B11DBB203F00103DBB28D
:101C40001A468021104810F0E2F9FB79DB09DBB27B
:101C50001A4640210C4810F0DAF94FF400610948A7
:101C600010F0B7F9012011F0ADFA4FF4006105480A
:101C700010F0BEF9052011F0A5FA00BF0837BD46E7
:101C800080BD00BF001001400014014080B582B04B
:101C900000AF0346FB714FF48061354810F099F9AD
:101CA000FB7903F00103DBB21A460121314810F041
:101CB000AEF9FB795B10DBB203F00103DBB21A462D
:101CC00002212C4810F0A3F9FB799B10DBB203F042
:101CD0000103DBB21A460421264810F098F9FB797B
:101CE000DB10DBB203F00103DBB21A460821214806
:101CF00010F08DF9FB791B11DBB203F00103DBB2AD
:101D00001A4610211B4810F082F9FB795B11DBB2F7
:101D100003F00103DBB21A462021164810F077F9D0
:101D2000FB799B11DBB203F00103DBB21A46802181
:101D3000104810F06CF9FB79DB09DBB21A46402140
:101D40000C4810F064F94FF40061094810F041F9B3
:101D5000012011F037FA4FF40061054810F048F9FE
:101D6000052011F02FFA00BF0837BD4680BD00BF27
:101D7000001001400014014080B500AFFFF7AEFE37
:101D8000142011F01FFA3020FFF70AFF052011F090
:101D900019FA3020FFF704FF052011F013FA302064
:101DA000FFF7FEFE052011F00DFA3820FFF7F8FED0
:101DB0000C20FFF7F5FE0620FFF7F2FE0120FFF7EB
:101DC000EFFE022011F0FEF900BF80BD80B500AF2C
:101DD0000120FFF7E5FE022011F0F4F900BF80BDFD
:101DE00080B584B000AF03460A46FB711346BB7151
:101DF000FB79013B032B1AD801A252F823F000BF54
:101E0000111E0008171E00081F1E0008271E0008CC
:101E1000BB79FB730EE0BB794033FB730AE0BB79FF
:101E20001433FB7306E0BB795433FB7302E0BB79D8
:101E3000FB7300BFFB7B63F07F03DBB21846FFF749
:101E4000AFFE00BF1037BD4680BD00BF80B582B079
:101E500000AF0346FB71FB791846FFF717FF00BF81
:101E60000837BD4680BD80B582B000AF786006E01F
:101E70007B685A1C7A601B781846FFF7E7FF7B687F
:101E80001B78002BF4D100BF00BF0837BD4680BDD2
:101E900080B582B000AF3B46184610F065F84FF4AD
:101EA0000061134810F0A4F800233B7104237B71F8
:101EB0001023BB710123FB714FF400633B603B4671
:101EC00019460B480FF0B4FF00233B7104237B71CC
:101ED0001023BB710123FB7120233B603B46194655
:101EE00004480FF0A5FF00BF0837BD4680BD00BF06
:101EF000001401400010014080B582B000AF0346DD
:101F0000FB7100BF8021084810F0EDFE0346002B56
:101F1000F8D0FB799BB21946034810F0D3FE00BFFE
:101F20000837BD4680BD00BF0060014090B585B058
:101F300002AF0446084611461A462346FB71034683
:101F4000BB710B467B7113463B71FB791846FFF75B
:101F5000D3FFBB791846FFF7CFFF7B791846FFF711
:101F6000CBFF3B791846FFF7C7FF3B7E1846FFF7CC
:101F7000C3FFF979B8797C793B793A7E0192009375
:101F800023460246034812F0DFF900BF0C37BD4676
:101F900090BD00BF1C83010880B582B000AF012155
:101FA0002B480EF090FB01212A480EF08CFB0121FA
:101FB00029480EF088FB3B4618460FF0D5FF032357
:101FC000BB71F9233B603B46194624480FF030FFB4
:101FD0000323BB7101233B603B46194620480FF0A9
:101FE00027FF0323BB7104233B603B4619461C4873
:101FF0000FF01EFF0323BB7108233B603B461946CD
:1020000017480FF015FF0323BB7110233B603B46BD
:10201000194613480FF00CFF0323BB7102233B60EA
:102020003B4619460F480FF003FF01233B60002396
:102030003B7104237B710823BB710123FB713B4679
:10204000194608480FF0F4FE00BF0837BD4680BDB2
:1020500002001800030018000400180000080140E6
:1020600000100140000C014080B500AF012108487C
:102070000EF029FB012107480EF025FB012106483F
:102080000EF021FB012105480EF01DFB00BF80BDB5
:1020900001001C00020018000300180004001800D2
:1020A00080B582B000AF1D4812F04EF9FFF774FF03
:1020B00009F092FD03461A4A1360194B1B68002B66
:1020C00024D0174B1B684FF4FB721649184608F0D2
:1020D00011FE0346FB7197F90730002B12D1104B0C
:1020E0001B68FF21184608F097FE03460C4A136050
:1020F0000B4B1B680C49184609F09AFD0B4812F06F
:1021000023F906E00A4812F01FF902E0094812F02C
:102110001BF900BF0837BD4680BD00BF44830108DE
:1021200008180020208E0108852700086083010818
:1021300084830108A483010880B586B000AF012123
:102140004FF4A0100EF0BFFA13480EF0CBFD3B1D6C
:1021500018460EF032FE0B23FB810023BB810F4B90
:10216000BB600123FB7401237B740D4B7B60012357
:10217000BB7400233B7402237B7501233B753B1D1D
:10218000194605480EF041FE012103480EF000FEFD
:1021900000BF1837BD4680BD080002400819002066
:1021A0004C24014080B582B000AF01214D480EF0B3
:1021B0008AFA02200EF09AFB00220421122010F06D
:1021C000D8F800200DF060FF3B1D18460DF072FF9F
:1021D00001233B7100237B710023BB710B23FB7137
:1021E0003B1D194640480DF07BFF072301220021CB
:1021F0003D480EF07BF80723022203213A480EF0F7
:1022000075F807230322042137480EF06FF80723DF
:102210000422052134480EF069F80723052206211F
:1022200031480EF063F80723062207212E480EF0EE
:102230005DF80723072209212B480EF057F80723E2
:1022400008220A2128480EF051F8072309220C2100
:1022500025480EF04BF807230A220D2122480EF0E4
:1022600045F807230B220E211F480EF03FF80122EC
:1022700007211D480EF0F6F801211B480DF065FFFF
:102280001A4919480DF0DDFF40F6AA2240F6BB318D
:1022900015480DF0F6FF052113480EF012F8012243
:1022A000402111480DF066FF01210F480DF0D6FEC8
:1022B0000D480DF080FF00BF0B480DF08BFF03466B
:1022C000002BF9D108480DF099FF00BF06480DF02A
:1022D000A4FF0346002BF9D100BF00BF0837BD465D
:1022E00080BD00BF090018000024014000028000EA
:1022F00080B485B000AFF860B9607A603B60FA687E
:10230000BB68D31AB9693A688A1A03FB02F2796882
:10231000BB68CB1AB2FBF3F23B6813441846143780
:10232000BD465DF8047B704780B584B002AF0346BC
:10233000FB80F88896230093192340F6FF72002152
:10234000FFF7D6FF03469BB218460837BD4680BD4F
:1023500090B583B000AF7860234B5B889BB2184682
:10236000FFF7E2FF03461A467B681A801E4B5B8923
:102370009AB27B689C1C1046FFF7D6FF0346238069
:10238000194B9B8A9AB27B681C1D1046FFF7CCFF45
:1023900003462380144B5B8A9AB27B689C1D1046CF
:1023A000FFF7C2FF034623807B681B8819460F484E
:1023B00011F0CAFF7B6802331B8819460C4811F0E4
:1023C000C3FF7B6804331B8819460A4811F0BCFF21
:1023D0007B6806331B881946074811F0B5FF00BF1C
:1023E0000C37BD4690BD00BF08190020C48301080A
:1023F000E0830108FC830108188401080000000044
:1024000090B585B000AF786039600023FB603EE096
:10241000FB689B007A6813441B681846FEF73CF87B
:102420004FF00002204BFEF78FF802460B46104695
:1024300019461BA3D3E90023FEF7B0F902460B4669
:10244000104619464FF000024FF00003FDF7C6FE9C
:1024500002460B4610461946FB685B003A68D418E2
:10246000FEF784FA03469BB22380FB685B003A6860
:1024700013441B88B3F5F07F06D9FB685B003A680C
:1024800013444FF4F0721A80FB680133FB60FB6861
:10249000022BBDDD00BF18461437BD4690BD00BFFE
:1024A0006666666666660A4000007E4000000000C0
:1024B00080B58AB000AF464B9B889BB23B83444BB0
:1024C000DB889BB27B83424B1B899BB2BB833B8BDC
:1024D00019467B8B1A46BB8B3E4811F035FF002313
:1024E0007B6235E07B6A5B0028333B4433F8103C69
:1024F0001846FDF7BFFF32A3D3E90023FEF724F807
:1025000002460B46104619462FA3D3E90023FEF7D7
:1025100045F902460B4610461946FEF747FA0246B1
:102520007B6A9B0028333B441C3B1A607B6A9B0000
:1025300028333B441C3B1B681846FDF7ADFF0246A1
:102540000B46796A244811F0FFFE7B6A01337B62F7
:102550007B6A022BC6DD3A1D07F10C0311461846B3
:10256000FFF74EFFBB881946FB881A463B891B487C
:1025700011F0EAFE00233B6217E03B6A5A1C3B6AFB
:102580005B0028333B4433F8241C154B23F812100E
:102590003B6A5A1C3B6A0133114931F81210114A47
:1025A00022F813103B6A01333B623B6A022BE4DDE5
:1025B00000BF00BF2837BD4680BD00BFAFF300801D
:1025C0006666666666660A400000000000FEAF4070
:1025D0000819002088840108C0840108D4840108F7
:1025E000681800202419002080B584B000AF3B4655
:1025F0001846FFF7ADFE3B881A467B881344BA881D
:102600001344FA881344FB60FB689B087B817B8939
:102610001946044811F098FE7B8918461037BD46CC
:1026200080BD00BF0C85010880B485B000AF0346B3
:10263000FB80FB884FF4C87202FB03F30A4A82FB5B
:1026400003121A44D212DB17D31A9BB203F5967306
:10265000FB81064AFB891380044B1B8818461437FC
:10266000BD465DF8047B7047810008806818002033
:1026700080B588B000AF304B1B889AB22F4B1A80C0
:102680002E4B1B881846FFF7CFFF03461A462C4BEC
:102690001A802B4B1A882B4B1A80274B9B889BB296
:1026A000BB82254BDB889BB2FB82234B1B899BB2F1
:1026B0003B83FFF7FDFE204B9B899BB2BB801E4BEB
:1026C000DB899BB2FB801C4B1B8A9BB23B811E4B60
:1026D0001B8807F10C021146184600F081FF002309
:1026E000FB6118E0FB691A1DFB695B0020333B446A
:1026F00033F8141C124B23F81210FB691A1DFB69E6
:102700005B0020333B4433F8141C0E4B23F81210AB
:10271000FB690133FB61FB69022BE3DDFFF764FF1B
:1027200003461A46064BDA81054BDA89054BDA81F6
:1027300000BF2037BD4680BD08190020501800207A
:1027400068180020241900201000002080B582B0F5
:1027500000AF78607A680A4B1B68D31AB3F57A7FAA
:1027600004D27A68064B1B689A4204D27B68044AFA
:102770001360FFF77DFF00BF0837BD4680BD00BF77
:102780004C13002080B584B000AFF860B9601346E8
:10279000FB710D4811F0D8FDBB6842F21072C3F80E
:1027A00094200A49B86809F01FFA04220849B86859
:1027B00009F055FA0749B86809F028FA00231846C5
:1027C0001037BD4680BD00BF3085010821280008B4
:1027D000D92700080128000880B582B000AF7860D2
:1027E00039603B681B7D042B05D0386808F0B2F9CE
:1027F0006FF00C0300E0002318460837BD4680BD8B
:1028000080B582B000AF78600B46FB70034811F0D2
:102810009BFD00BF0837BD4680BD00BF488501084D
:1028200080B584B000AFF860B9607A60FB707B68F7
:10283000002B07D1134811F087FDB86808F08AF91A
:1028400000231BE097F90330002B05D0786807F0D0
:1028500021FD97F9033011E07B6859687B685B893B
:102860001A46B86800F010F87B681B891946B868EA
:1028700008F0B6FB786807F00DFD00231846103706
:10288000BD4680BD5C85010880B5D0B000AF07F5BE
:10289000A073A3F59A73186007F5A073A3F59C7352
:1028A000196007F5A073A3F59D731A8007F5A0734F
:1028B000A3F59D731B880B2B04D8B64811F0CAFDF5
:1028C00000F0ECBD07F5A073A3F59C731B681B78A3
:1028D0001B021AB207F5A073A3F59C731B680133A2
:1028E0001B781BB213431BB2A7F8323107F5A07354
:1028F000A3F59C731B6802331B781B021AB207F501
:10290000A073A3F59C731B6803331B781BB213439E
:102910001BB2A7F8303107F5A073A3F59C731B68B1
:1029200004331B781B021AB207F5A073A3F59C733E
:102930001B6805331B781BB213431BB2A7F82E315B
:1029400007F5A073A3F59C731B689B7987F82D315D
:1029500007F5A073A3F59C731B68DB7987F82C310E
:102960000023A7F83E3107F5A073A3F59C731B68FD
:102970001A7807F5A073A3F592731A7007F5A07380
:10298000A3F59C731B685A7807F5A073A3F592739F
:102990005A7007F5A073A3F5927300229A7007F599
:1029A000A073A3F592730022DA7007F5A073A3F564
:1029B000927397F82D219A7107F5A073A3F592737E
:1029C00097F82C21DA7197F82C31032B04D0062BC1
:1029D00000F0F68000F0FDBC07F5A073A3F59C7332
:1029E0001B6808331B781B021AB207F5A073A3F506
:1029F0009C731B6809331B781BB213431BB2A7F8E7
:102A0000243107F5A073A3F59C731B680A331B7868
:102A10001B021AB207F5A073A3F59C731B680B3356
:102A20001B781BB213431BB2A7F82231B7F824312D
:102A3000B7F822211946584811F086FCB7F824212E
:102A4000B7F822311344082B00F3EC84B7F8223195
:102A5000DBB25B00DAB207F5A073A3F592731A72CA
:102A60000023C7F8383171E0B7F82421D7F838319E
:102A700013444A4A32F81320494B1A80484B1B88AA
:102A80001B0A9AB2D7F838315B000933D1B207F587
:102A9000A072A2F59272D154414B1A88D7F83831FE
:102AA00005335B00D1B207F5A072A2F59272D15442
:102AB000B7F82421D7F838311344013B062B35D819
:102AC00001A252F823F000BFE52A0008F12A00080D
:102AD000FB2A0008052B00080F2B0008192B000803
:102AE000232B00082F4B1B789AB22D4B1A8028E01D
:102AF0002D4B1A882A4B1A8023E02C4B1A88284B1E
:102B00001A801EE02A4B1A88254B1A8019E0294B9F
:102B10001A88234B1A8014E0274B1A88204B1A80FE
:102B20000FE0264B1A881E4B1A800AE0B7F82421C2
:102B3000D7F838311344194A32F81320184B1A8049
:102B400000BFD7F838310133C7F83831B7F8223130
:102B5000D7F838219A4287DBB7F822315B009BB265
:102B60000933A7F83E31B7F83E31063B1B12DAB203
:102B700007F5A073A3F592731A71B7F83E31DBB273
:102B8000063BDAB207F5A073A3F592735A7100F011
:102B900049BC00BF70850108888501082419002000
:102BA00044130020240000202E180020301800209C
:102BB0003218002010000020120000202C180020E5
:102BC00007F5A073A3F59C731B6808331B781B02E1
:102BD0001AB207F5A073A3F59C731B6809331B7821
:102BE0001BB213431BB2A7F82A3107F5A073A3F554
:102BF0009C731B680A331B781B021AB207F5A0737B
:102C0000A3F59C731B680B331B781BB213431BB2D9
:102C1000A7F82831B7F82A31B7F828211946B8485B
:102C200011F092FBB7F82A31013B062B00F2AD837D
:102C300001A252F823F000BF552C00081B2D0008FC
:102C4000672E0008972F0008753000089F31000894
:102C50007D320008B7F82831322B03D0B7F828317D
:102C60003C2B32D1B7F82831DAB2A64B1A70A64BFA
:102C70001B6801221946A348FEF78EFCA24B1B6875
:102C800001221946A148FEF723FDA04B1B781846E8
:102C900000F05EFC07F11C03083307F5A072A2F5F3
:102CA0009C721268083212681A600C23A7F83E3131
:102CB00007F5A073A3F5927300221A7107F5A073AC
:102CC000A3F5927306225A7182E3904B1B78184643
:102CD00000F03EFC07F5A073A3F59273DB7963F077
:102CE0007F03DAB207F5A073A3F59273DA7107F5E3
:102CF000A073A3F5927303221A720923A7F83E3139
:102D000007F5A073A3F5927300221A7107F5A0735B
:102D1000A3F5927303225A715AE3B7F82831B3F539
:102D2000F07F7DD87A4AB7F828311380794B012299
:102D30001A70774B1B881B0A9BB2DAB2764B1A705B
:102D4000734B1B88DAB2744B5A70744B1B680222A7
:102D500019467148FEF720FC704B1B680222194689
:102D60006F48FEF7B5FC6E4B1B781B021AB26C4B1A
:102D70005B781BB213431BB29AB26A4B1A80694B41
:102D80001B881946684811F0DFFA664B1B881A4603
:102D9000642302FB03F3654A82FB03121A441212F6
:102DA000DB17D31ADAB2624B1A705E4B1B881A46D5
:102DB000642302FB03F35D4A82FB03121A441212DE
:102DC000DB17D31ADAB25B4B1A70564B1B881A46C4
:102DD000642302FB03F3554A82FB03121A441212C6
:102DE000DB17D31ADAB2544B1A7007F11C030833FD
:102DF00007F5A072A2F59C721268083212681A6078
:102E00000C23A7F83E3107F5A073A3F592730022B7
:102E10001A7107F5A073A3F5927306225A71D7E2CF
:102E200007F5A073A3F59273DB7963F07F03DAB241
:102E300007F5A073A3F59273DA7107F5A073A3F5F4
:102E4000927303221A720923A7F83E3107F5A07383
:102E5000A3F5927300221A7107F5A073A3F592737C
:102E600003225A71B4E2B7F82831B3F5F07F6FD876
:102E7000324AB7F828311380304B1B881B0A9BB2AB
:102E8000DAB22F4B1A702D4B1B88DAB22C4B5A70CA
:102E90002C4B1B68022219462948FEF77DFB294B63
:102EA0001B68022219462848FEF712FC264B1B78A5
:102EB0001B021AB2244B5B781BB213431BB29AB2AB
:102EC000224B1A8000F0FEFD07F11C03083307F5C2
:102ED000A072A2F59C721268083212681A600C2364
:102EE000A7F83E3107F5A073A3F5927300221A717B
:102EF00007F5A073A3F5927306225A7168E200BF2A
:102F0000C0850108C91800202000002024000020EE
:102F10002C00002034180020CC18002028000020AD
:102F2000D0180020D2180020F485010889888888EC
:102F300003000020040000200500002034000020D1
:102F4000D418002030000020D8180020DA18002003
:102F500007F5A073A3F59273DB7963F07F03DAB210
:102F600007F5A073A3F59273DA7107F5A073A3F5C3
:102F7000927303221A720923A7F83E3107F5A07352
:102F8000A3F5927300221A7107F5A073A3F592734B
:102F900003225A711CE2B7F82831B3F5F07F46D806
:102FA000C24AB7F828311380C04B1B881B0A9BB25A
:102FB000DAB2BF4B1A70BD4B1B88DAB2BC4B5A70E9
:102FC000BC4B1B6802221946B948FEF7E5FAB94B1B
:102FD0001B6802221946B848FEF77AFBB64B1B78ED
:102FE0001B021AB2B44B5B781BB213431BB29AB2EA
:102FF000B24B1A8000F066FD07F11C03083307F599
:10300000A072A2F59C721268083212681A600C2332
:10301000A7F83E3107F5A073A3F5927300221A7149
:1030200007F5A073A3F5927306225A71D0E107F554
:10303000A073A3F59273DB7963F07F03DAB207F52F
:10304000A073A3F59273DA7107F5A073A3F59273D9
:1030500003221A720923A7F83E3107F5A073A3F5DE
:10306000927300221A7107F5A073A3F592730322DD
:103070005A71ADE1B7F828311946914811F064F959
:10308000B7F82831012B07D0B7F82831022B03D02D
:10309000B7F82831032B5FD1B7F82831DAB2894B62
:1030A0001A70894B1B68012219468648FEF774FA8C
:1030B000854B1B68012219468448FEF709FBB7F8C7
:1030C00028311946824811F03FF907F5A073A3F59E
:1030D000967300221A609A807C4B1B789BB207F192
:1030E00014021146184600F07BFA0023C7F8343169
:1030F00012E0D7F83431093307F5A072A2F59672C1
:10310000D7F8341132F81110724A22F81310D7F898
:1031100034310133C7F83431D7F83431022BE8DDCC
:1031200007F11C03083307F5A072A2F59C72126820
:10313000083212681A600C23A7F83E3107F5A07315
:10314000A3F5927300221A7107F5A073A3F5927389
:1031500006225A7100BF3BE107F5A073A3F59273F5
:10316000DB7963F07F03DAB207F5A073A3F59273FE
:10317000DA7107F5A073A3F5927303221A7209237B
:10318000A7F83E3107F5A073A3F5927300221A71D8
:1031900007F5A073A3F5927303225A7118E1B7F8EB
:1031A0002831B3F57A7F46D84B4AB7F828311380D7
:1031B000494B1B881B0A9BB2DAB2484B1A70464B2C
:1031C0001B88DAB2454B5A70454B1B6802221946E0
:1031D0004248FEF7E1F9424B1B680222194641487A
:1031E000FEF776FA3F4B1B781B021AB23D4B5B7819
:1031F0001BB213431BB29AB23B4B1A8000F0BAFFCA
:1032000007F11C03083307F5A072A2F59C7212683F
:10321000083212681A600C23A7F83E3107F5A07334
:10322000A3F5927300221A7107F5A073A3F59273A8
:1032300006225A71CCE007F5A073A3F59273DB79EF
:1032400063F07F03DAB207F5A073A3F59273DA7126
:1032500007F5A073A3F5927303221A720923A7F846
:103260003E3107F5A073A3F5927300221A7107F59A
:10327000A073A3F5927303225A71A9E0B7F828311D
:10328000002B03D0B7F82831012B5BD1B7F82831D8
:1032900087F8273197F82731012B2BD120211348AC
:1032A0000EF097FE124811F0D5F82AE0DC18002045
:1032B000E018002038000020E4180020E618002064
:1032C00004860108400000203C000020E81800208F
:1032D000348601082419002048000020EC18002042
:1032E00044000020F0180020F218002000100140D7
:1032F0004C86010820216B480EF07AFE6A4811F0D6
:10330000A9F897F827319AB2684BDA8107F11C03C4
:10331000083307F5A072A2F59C7212680832126891
:103320001A600C23A7F83E3107F5A073A3F592733A
:1033300000221A7107F5A073A3F5927306225A7141
:1033400000BF45E007F5A073A3F59273DB7963F046
:103350007F03DAB207F5A073A3F59273DA7107F56C
:10336000A073A3F5927303221A720923A7F83E31C2
:1033700007F5A073A3F5927300221A7107F5A073E5
:10338000A3F5927303225A7122E007F5A073A3F507
:103390009273DB7963F07F03DAB207F5A073A3F5CC
:1033A0009273DA7107F5A073A3F5927302221A7271
:1033B0000923A7F83E3107F5A073A3F59273002205
:1033C0001A7107F5A073A3F5927303225A7100BF17
:1033D00029E097F82C311946354810F0B5FF07F56C
:1033E000A073A3F59273DB7963F07F03DAB207F57C
:1033F000A073A3F59273DA7107F5A073A3F5927326
:1034000001221A720923A7F83E3107F5A073A3F52C
:10341000927300221A7107F5A073A3F59273032229
:103420005A7100E000BFB7F83E31002B36D0B7F834
:103430003E314FF420721946362006F0E7FCC7F8FB
:103440001C01D7F81C31002B25D0D7F81C315B6844
:10345000B7F83E2107F11C01184610F0CBF8D7F859
:103460001C315968B7F83E2107F5A073A3F59A708F
:10347000012300680AF0F6FF07F5A073A3F59A731D
:1034800018680BF0B5FCD7F81C0106F003FF0948DB
:1034900010F0E0FF02E0084810F0DCFF07F5A0772D
:1034A000BD4680BD0010014060860108241900203F
:1034B000788601089C860108B886010880B582B02C
:1034C00000AF0346FB801F4B5B881A461E4B1B88D0
:1034D0009BB2143B9A4231DB1A4B5B881A461A4B5B
:1034E0001B889BB214339A4228DC164B9B881A46E1
:1034F000154B1B889BB2143B9A421FDB114B9B88D8
:103500001A46114B1B889BB214339A4216DC0D4BA2
:10351000DB881A460C4B1B889BB2143B9A420DDB8E
:10352000084BDB881A46084B1B889BB214339A421F
:1035300004DC4FF4007105480EF04BFD00BF083766
:10354000BD4680BD6818002016000020001801400C
:1035500080B582B000AF0346FB71FB79322B0DD0F2
:10356000FB793C2B0AD04FF400611A480EF031FD74
:10357000FB791946184810F0E7FE27E0FB79322B5B
:103580000DD1FB791846FCF765FF02460B46104645
:103590001946FDF70BFA0346104A136016E0FB7953
:1035A0003C2B0DD1FB791846FCF754FF02460B4625
:1035B00010461946FDF7FAF90346084A136005E07C
:1035C000FB791946044810F0BFFE00BF0837BD461E
:1035D00080BD00BF00180140DC86010844180020AF
:1035E00080B584B000AF03463960FB8040F6FF73BE
:1035F0007B818D4B1B8819468C4810F0A5FE8C4BA7
:103600001B899BB219468A4B5B899BB21A46884B31
:103610009B899BB2874810F097FEFB881946864825
:1036200010F092FE854B1B68012219468448FEF774
:103630004FF8FB883B813B891946824810F084FE95
:103640007F4B1B78032B00F08880032B00F3C38093
:10365000012B02D0022B40D0BDE00023FB6038E0FC
:10366000FB680433724A32F813309BB21946FB6888
:1036700004336F4A32F813309BB21A464FF47A7310
:1036800002FB03F3704A82FB03021A44D212DB17D7
:10369000D31A0A46F9686D4810F056FEFB680433E9
:1036A000634A32F813309BB21A464FF47A7302FB26
:1036B00003F3654A82FB03121A44D212DB17D11AB4
:1036C000FB685B003A6813448AB21A80FB680133D6
:1036D000FB60FB68022BC3DD8DE00023FB6038E05C
:1036E000FB680433524A32F813309BB21946FB6828
:1036F00004334F4A32F813309BB21A464FF4FA7330
:1037000002FB03F3504A82FB03021A44D212DB1776
:10371000D31A0A46F9684D4810F016FEFB680433C8
:10372000434A32F813309BB21A464FF4FA7302FB45
:1037300003F3454A82FB03121A44D212DB17D11A53
:10374000FB685B003A6813448AB21A80FB68013355
:10375000FB60FB68022BC3DD4DE00023FB6036E01D
:10376000FB680433324A32F813309BB21946FB68C7
:1037700004332F4A32F813309BB21A46642302FBFB
:1037800003F3314A82FB03021A44D212DB17D31A25
:103790000A46F9682D4810F0D7FDFB680433244A27
:1037A00032F813309BB21A46642302FB03F3264A15
:1037B00082FB03121A44D212DB17D11AFB685B009A
:1037C0003A6813448AB21A80FB680133FB60FB68D5
:1037D000022BC5DD0FE00023FB6008E0FB685B0007
:1037E0003A68134400221A80FB680133FB60FB68CF
:1037F000022BF3DD00BF0023FB600CE0FB685B00E5
:103800003A6813441B881A46F968114810F09CFD69
:10381000FB680133FB60FB68022BEFDD00BF00BFDC
:103820001037BD4680BD00BF441300203486010818
:1038300008190020F4860108288701083C000020B0
:10384000E818002048870108810008806C8701087B
:103850009087010880B582B000AF01210D480CF0BF
:1038600032FF28237B714FF4C0433B601023BB71B0
:103870004FF438633B6004237B7100233B710123C9
:10388000FB713B46194604480EF0D2FA00BF0837D8
:10389000BD4680BD060018000018014080B500AF8D
:1038A000794B1B88B3F5AF7F5ED3774B1B88B3F59D
:1038B0002F7F59D8FEF78AFA00210120FEF790FAEF
:1038C000714B1B881A467149714810F0D5FE70483B
:1038D000FEF7C9FA0FF098FC0346002B40F0D280A7
:1038E0006C4B01221A704FF480516B480EF071FB43
:1038F00032200FF067FC4FF4805167480EF078FBE0
:10390000FEF764FA6548FEF7AEFA4FF47A700FF0EE
:1039100059FC802162480EF05CFB4FF4FA600FF016
:1039200051FC4FF480715E480EF053FB5D4B1B68F9
:10393000022219465C48FDF7CBFE5B4B1B781B024D
:103940001AB2594B5B781BB213431BB29AB2574B56
:103950001A804FF4FA600FF035FC554B1B889BB270
:103960001846FFF7ABFD8DE0474B1B88B3F5AF7FE3
:1039700041D2484B00221A70FEF728FA002101209C
:10398000FEF72EFA404B1B881A464049404810F07B
:1039900073FE3F48FEF767FA00210220FEF720FA87
:1039A0004448FEF760FA04200FF0DAFC05200FF01F
:1039B000B3FC4FF400613A480EF00BFB802138480D
:1039C0000EF016FB4FF4807135480EF011FB4FF4EA
:1039D000007133480EF00CFB00210320FEF700FAC3
:1039E0003548FEF740FA00210420FEF7F9F9334884
:1039F000FEF739FA46E0244B1B88B3F52F7F41D9F7
:103A0000244B00221A70FEF7E1F900210120FEF795
:103A1000E7F91D4B1B881A461C491D4810F02CFE67
:103A20001B48FEF720FA00210220FEF7D9F92448AE
:103A3000FEF719FA04200FF093FC05200FF06CFC40
:103A40004FF4006116480EF0C4FA802114480EF0BD
:103A5000CFFA4FF4807112480EF0CAFA4FF4007199
:103A60000F480EF0C5FA00210320FEF7B9F91248FD
:103A7000FEF7F9F900210420FEF7B2F90F48FEF72E
:103A8000F2F9FFE700BF80BD681800202888010810
:103A9000801800204A0000200014014030880108EE
:103AA0000018014028000020D0180020D218002063
:103AB0001600002040880108508801086488010829
:103AC0007088010880B584B002AF5C4B1B6802228D
:103AD00019465B48FDF7FCFD594B1B781B021AB2D7
:103AE000574B5B781BB213431BB29AB2554B1A80EB
:103AF000554B1B68022219465448FDF7E9FD534B0C
:103B00001B781B021AB2514B5B781BB213431BB2DA
:103B10009AB24F4B1A804F4B5A884D4B1B889A4292
:103B20001DD34C4B5A88474B1B889A4217D8494B98
:103B30009A88474B1B889A4211D3464B9A88414B2F
:103B40001B889A420BD8434BDA88414B1B889A4218
:103B500005D3404BDA883B4B1B889A4201D901239D
:103B600000E00023FB71FB7903F00103FB71FB799B
:103B7000002B00F08580384B00221A70374B012251
:103B80001A7004200FF0ECFB05200FF0C5FB80211C
:103B900033480EF02DFA4FF4807131480EF028FAB8
:103BA0004FF400712E480EF023FAFEF70FF90021B2
:103BB0000120FEF715F9274B5B881A46254B9B8899
:103BC0001946244BDB8800930B462649264810F003
:103BD00053FD2548FEF747F900210220FEF700F9C2
:103BE0001C4B5A88174B1B889A420BD8194B9A8842
:103BF000144B1B889A4205D8164BDA88114B1B8848
:103C00009A4203D91948FEF72EF902E01848FEF748
:103C10002AF900210320FEF7E3F81648FEF723F9FE
:103C20004FF4805114480EF0D4F900210420FEF71F
:103C3000D7F81248FEF717F994E000BF30000020D3
:103C4000D8180020DA18002038000020E4180020DE
:103C5000E6180020681800204A00002044190020BF
:103C6000001801408088010880180020948801080D
:103C7000A8880108508801080014014064880108E0
:103C8000FB7983F00103DBB2002B6BD04FF40071A2
:103C900075480EF09EF9754B5B881A46734B9B88EE
:103CA0001946724BDB8800930B467149714810F03E
:103CB000E3FC00210220FEF793F86E48FEF7D3F8EC
:103CC00004200FF029FB05200FF04AFB6A4B1B680C
:103CD000022219466948FDF7FBFC684B1B781B0262
:103CE0001AB2664B5B781BB213431BB29AB2644B99
:103CF0001A80644B1B78012B34D15C4B5B881A46CD
:103D00005F4B1B88143B9A422CDB584B5B881A464E
:103D10005B4B1B8814339A4224DC544B9B881A4615
:103D2000574B1B88143B9A421CDB504B9B881A460E
:103D3000534B1B8814339A4214DC4C4BDB881A46D5
:103D40004F4B1B88143B9A420CDB484BDB881A46CE
:103D50004B4B1B8814339A4204DC4FF400714A48E1
:103D60000EF037F90FF050FA0346002B77D1474B8E
:103D70001B78002B73D0434B01221A70FEF726F8F4
:103D80004348FEF770F84FF47A700FF01BFAFB7996
:103D900083F00103DBB2002B61D03C4B00221A7090
:103DA00004200FF0B9FA05200FF0DAFA8021364826
:103DB0000EF00FF94FF4FA600FF004FA4FF480712F
:103DC00031480EF006F94FF4FA600FF0FBF92A4B78
:103DD0001B68022219462948FDF77AFC274B1B78FD
:103DE0001B021AB2254B5B781BB213431BB29AB26B
:103DF000234B1A801D4B5B881A46214B1B88143BB2
:103E00009A422CDB194B5B881A461D4B1B881433D6
:103E10009A4224DC154B9B881A46194B1B88143B8D
:103E20009A421CDB114B9B881A46154B1B88143396
:103E30009A4214DC0D4BDB881A46114B1B88143B4D
:103E40009A420CDB094BDB881A460D4B1B88143356
:103E50009A4204DC4FF400710B480EF0BAF800BF30
:103E60000837BD4680BD00BF00140140681800201F
:103E7000808801088018002028000020D018002029
:103E8000D21800204A0000200018014044190020E8
:103E9000BC88010890B585B002AF614B1B68022257
:103EA00019466048FDF714FC5E4B1B781B021AB2E2
:103EB0005C4B5B781BB213431BB29AB25A4B1A800D
:103EC0005A4B1B68012219465948FDF701FC564B15
:103ED0001B88143BFB80544B1B881433BB8000238E
:103EE0007B8064233B80534B5B88FA889A421CD9C1
:103EF000514B1B780133DAB24F4B1A704E4B1B7883
:103F00009BB23A889A4203D23B88DAB24A4B1A7083
:103F10004A4810F09FFA474B5B881946464B1B787E
:103F20001A46474810F010FA1DE0424B5B88BA88E9
:103F30009A4218D2404B1B78013BDAB23E4B1A70C2
:103F40003D4B1B789BB27A889A4203D97B88DAB2C0
:103F5000394B1A70374B5B881946374B1B781A461A
:103F6000384810F0F1F9334B9B88FA889A4219D9F6
:103F7000354B1B780133DAB2334B1A70324B1B7856
:103F80009BB23A889A4203D23B88DAB22E4B1A701F
:103F9000284B9B8819462C4B1B781A462B4810F04F
:103FA000D3F91DE0234B9B88BA889A4218D2264B3E
:103FB0001B78013BDAB2244B1A70234B1B789BB25F
:103FC0007A889A4203D97B88DAB21F4B1A70194B50
:103FD0009B8819461C4B1B781A461D4810F0B4F9F3
:103FE000144BDB88FA889A4238D91A4B1B78013374
:103FF000DAB2184B1A70174B1B789BB23A889A4268
:1040000003D23B88DAB2134B1A700A4BDB8819468D
:10401000104B1B781A46104810F096F93CE000BF90
:1040200028000020D0180020D218002020000020F6
:10403000240000206818002003000020D088010818
:10404000E48801080C890108040000203489010873
:104050005C89010805000020848901083C4BDB884D
:10406000BA889A4218D23B4B1B78013BDAB2394BE3
:104070001A70384B1B789BB27A889A4203D97B8896
:10408000DAB2344B1A70324BDB881946314B1B784D
:104090001A46314810F058F9304B1B789BB23A88D9
:1040A0009A421AD82E4B1B789BB23A889A4214D85F
:1040B000284B1B789BB23A889A420ED8244B5B88D7
:1040C000FA889A422AD8224B9B88FA889A4225D8A5
:1040D0001F4BDB88FA889A4220D8204B1B789BB272
:1040E0007A889A4222D31E4B1B789BB27A889A42D6
:1040F0001CD3184B1B789BB27A889A4216D3144B68
:104100005B88BA889A4209D3114B9B88BA889A4235
:1041100004D30F4BDB88BA889A4207D24FF4007160
:1041200010480DF065FF104810F094F90F4B187807
:104130000F4B1978094B1A78094B1C78054B1B78E3
:1041400000932346FDF7F2FE00BF0C37BD4690BD3D
:104150006818002005000020AC8901080300002039
:104160000400002000180140D4890108010000204B
:104170002400002080B582B002AF5A4B1B891A463A
:10418000584B5B891946574B9B8900930B46564900
:10419000564810F071FA00210320FDF721FE534824
:1041A000FDF761FE524B1B68012219465148FDF78D
:1041B0008FFA514B1B68022219465048FDF788FAC6
:1041C0004E4B1B781B021AB24C4B5B781BB213434D
:1041D0001BB29AB24A4B1A80464B1B78012B27D14F
:1041E000474B1B88B3F57A7F22D9464B00221A70C1
:1041F00000210420FDF7F4FD4348FDF734FE4FF4A1
:10420000006142480DF0E5FE04200FF0A9F80520FA
:104210000FF082F880213D480DF0EAFE4FF48071E6
:104220003A480DF0E5FE4FF4007138480DF0E0FE1D
:10423000304B1B78022B27D1314B1B88B3F5FA7F0B
:1042400022D9304B00221A7000210420FDF7C8FD4E
:104250002D48FDF708FE4FF400612C480DF0B9FE23
:1042600004200FF07DF805200FF056F88021274834
:104270000DF0BEFE4FF4807124480DF0B9FE4FF4EE
:10428000007122480DF0B4FE1A4B1B78032B26D187
:104290001B4B1B88642B22D91A4B00221A70002159
:1042A0000420FDF79DFD1848FDF7DDFD4FF400618A
:1042B00016480DF08EFE04200FF052F805200FF086
:1042C0002BF8802111480DF093FE4FF480710F48B8
:1042D0000DF08EFE4FF400710C480DF089FE00BF0A
:1042E000BD4680BD68180020248A0108801800207F
:1042F0003C000020E818002044000020F0180020B6
:10430000F21800204A000020388A010800180140F5
:1043100080B586B000AF07F1100318460DF024FEFB
:104320000023BB7508233B6118237B7507F110033D
:10433000194613480DF07CFD032104200DF0CCFE3E
:104340003B1D18460DF098FC01237B7300233B7145
:104350000823BB6001233B733B1D18460DF0A2FCF4
:10436000012108200DF044FD03200EF031F8002259
:10437000002109200DF0FDFF00BF1837BD4680BDAC
:104380000018014080B500AF082146480DF006FE38
:1043900003461A46444B1A70424B9B6803F00803CD
:1043A000002B14BF01230023DBB21A463E4B1A70C8
:1043B0003D4B1B7819463D480FF0C6FF3A4B1B7822
:1043C000002B24D13A4810F045F8FDF7FFFC39489E
:1043D000FDF749FD04200EF0C3FF05200EF09CFF01
:1043E000802130480DF004FE334810F033F84FF4CC
:1043F00080712C480DF0FCFD304810F02BF84FF484
:10440000007128480DF0F4FD2D4810F023F88021AC
:1044100024480DF0C3FD03461A462A4B1A704FF488
:10442000807120480DF0BAFD03461A46264B1A70DB
:104430004FF400711B480DF0B1FD03461A46234BA3
:104440001A70184B9B6803F08003002B14BF0123E4
:104450000023DBB21A461B4B1A70124B9B6803F405
:104460008073002B14BF01230023DBB21A46164BC6
:104470001A700C4B9B6803F40073002B14BF0123CC
:104480000023DBB21A46114B1A700E4B1B781946EB
:104490000D4B1B781A460D4B1B780D480FF054FF3F
:1044A00000BF80BD001801401A000020488A0108A2
:1044B0005C8A01086C8A01087C8A01088C8A0108E0
:1044C0009C8A0108C6180020C7180020C8180020C0
:1044D000AC8A010880B500AF08200DF065FC0346EA
:1044E000002B10D009480FF02FFF12200DF062FFB3
:1044F000074B00221A70074B01221A70FFF742FF88
:1045000008200DF033FC00BF80BD00BFD48A010835
:10451000060000204013002080B586B000AF07F1F0
:10452000100318460DF020FD0023BB7502233B61EC
:1045300018237B7507F11003194613480DF078FC1A
:10454000012104200DF0C8FD3B1D18460DF094FB21
:1045500001237B7300233B710223BB6001233B7368
:104560003B1D18460DF09EFB012102200DF040FC82
:1045700003200DF02DFF0022012107200DF0F9FE90
:1045800000BF1837BD4680BD0018014080B500AFA0
:10459000022151480DF002FD03461A464F4B1A7096
:1045A0004D4B9B6803F00203002B14BF0123002333
:1045B000DBB21A46494B1A70484B1B7819464848DB
:1045C0000FF0C2FE454B1B78002B39D1454B1B89A0
:1045D000B3F5967F34D9434B5B89B3F5967F2FD9DA
:1045E000404B9B89B3F5967F2AD93F480FF032FFA5
:1045F000FDF7ECFB3C48FDF736FC04200EF0B0FE66
:1046000005200EF089FE802133480DF0F1FC37487B
:104610000FF020FF4FF480712F480DF0E9FC344873
:104620000FF018FF4FF400712B480DF0E1FC3148FA
:104630000FF010FF12200DF0BDFE2F4B00221A705C
:10464000802125480DF0AAFC03461A462B4B1A7010
:104650004FF4807120480DF0A1FC03461A46284B08
:104660001A704FF400711C480DF098FC03461A466E
:10467000244B1A70184B9B6803F08003002B14BF67
:1046800001230023DBB21A461C4B1A70124B9B68A5
:1046900003F48073002B14BF01230023DBB21A46FE
:1046A000174B1A700C4B9B6803F40073002B14BF5C
:1046B00001230023DBB21A46124B1A700F4B1B78F2
:1046C00019460F4B1B781A460E4B1B780E480FF0FD
:1046D0003BFE00BF80BD00BF001801401B00002052
:1046E000E88A010868180020FC8A01087C8A010811
:1046F0008C8A01089C8A010806000020C618002048
:10470000C7180020C8180020AC8A010880B500AF87
:1047100002200DF049FB0346002B0AD006480FF09B
:1047200013FE064B01221A70FFF730FF02200DF036
:104730001DFB00BF80BD00BFD48A010841130020CB
:1047400080B586B000AF07F1100318460DF00CFCE1
:104750000023BB7501233B6118237B7507F1100310
:10476000194613480DF064FB002104200DF0B4FC41
:104770003B1D18460DF080FA01237B7300233B712B
:104780000123BB6000233B733B1D18460DF08AFAE2
:10479000012101200DF02CFB03200DF019FE002259
:1047A000022106200DF0E5FD00BF1837BD4680BD93
:1047B0000018014080B500AF012146480DF0EEFB26
:1047C00003461A46444B1A70424B9B6803F00103A0
:1047D000002B14BF01230023DBB21A463E4B1A7094
:1047E0003D4B1B7819463D480FF0AEFD3A4B1B7808
:1047F000012B24D13A480FF02DFEFDF7E7FA384897
:10480000FDF731FB04200EF0ABFD05200EF084FD1A
:10481000802130480DF0ECFB32480FF01BFE4FF4C6
:1048200080712C480DF0E4FB2F480FF013FE4FF47D
:10483000007128480DF0DCFB2C480FF00BFE8021A6
:1048400024480DF0ABFB03461A46294B1A704FF46F
:10485000807120480DF0A2FB03461A46254B1A70C2
:104860004FF400711B480DF099FB03461A46224B8A
:104870001A70184B9B6803F08003002B14BF0123B0
:104880000023DBB21A461A4B1A70124B9B6803F4D2
:104890008073002B14BF01230023DBB21A46154B93
:1048A0001A700C4B9B6803F40073002B14BF012398
:1048B0000023DBB21A46104B1A700D4B1B781946B9
:1048C0000C4B1B781A460C4B1B780C480FF03CFD28
:1048D00000BF80BD001801401C000020148B01089F
:1048E000248B01087C8A01088C8A01089C8A0108B3
:1048F000C6180020C7180020C8180020AC8A01087C
:1049000080B500AF01200DF04FFA0346002B10D008
:1049100009480FF019FD12200DF04CFD074B002245
:104920001A70074B01221A70FFF744FF01200DF0A7
:104930001DFA00BF80BD00BFD48A01080600002018
:104940004213002090B58DB002AF00233B610023DD
:10495000FB6003200DF03CFDFCF70AFDFDF784FB36
:104960000EF07CFB03200EF0D7FC04200EF0F8FCC8
:1049700005200EF0F5FC4FF4E1300EF0E5FA4FF4AF
:10498000E1300EF027FBFDF783FAFCF787FDBA480C
:104990000FF0DAFCFDF7F0F9FDF718FAB74B1B68DA
:1049A0001946B7480FF0D0FCB6480CF047F8B54BA5
:1049B000DB681946B4480FF0C7FCB24B9B68194638
:1049C000B2480FF0C1FCAF4B5B681946B0480FF01E
:1049D000BBFCFCF791F9034687F8273097F827309E
:1049E000002B06D1AB480FF0AFFC4FF4FA700EF07D
:1049F000E9FB97F82730002BEBD000237B810023C5
:104A00003B8100233B6207F10A031A460221002082
:104A10000CF00AFC0346012B02D09F480FF01AFD50
:104A200007F108031A46032100200CF0FDFB0346A2
:104A3000012B02D099480FF00DFD3B891A467B8966
:104A40001B0413433B62396A95480FF07DFC3B6AB7
:104A5000944A934203D194480FF0FCFC02E093483F
:104A60000FF0F8FC92480FF06FFC4FF47A700EF0E4
:104A7000A9FB00F0E1FC8F480FF066FC4FF47A7060
:104A80000EF0A0FBFDF70CFB8B480FF0E3FC7B4B1B
:104A90001B688A4AA2FB03239B0D9BB2013B9AB27F
:104AA000874B1A80FDF778FAFDF746FBFDF77AFB96
:104AB000844B9B6803F48063002B14BF0123002305
:104AC000DBB2FB77FB7F19467F480FF03DFC0021EE
:104AD0000220FDF785F97D48FDF7C5F90C20FDF7AB
:104AE0005FF804200EF018FC40F6B8300EF06AFBB8
:104AF000FDF76CF9FEF7AEFEFFF70AFCFFF70CFDC1
:104B0000FFF71EFE012172480BF0E3FC6C4B1B8883
:104B10001A4640F299216F480DF021FE00216D48A0
:104B20000DF034FE6C4B1B68012219466B48FCF7F4
:104B3000CFFD6A4B1B781846FEF70AFD684B1B68D1
:104B4000022219466748FCF7C3FD664B1B781B021F
:104B50001AB2644B5B781BB213431BB29AB2624B1E
:104B60001A80614B1B881A46642302FB03F35F4AD9
:104B700082FB03121A441212DB17D31ADAB25C4B0F
:104B80001A70594B1B881A46642302FB03F3574AD9
:104B900082FB03121A441212DB17D31ADAB2554BF6
:104BA0001A70514B1B881A46642302FB03F34F4AC9
:104BB00082FB03121A441212DB17D31ADAB24E4BDD
:104BC0001A704E480DF0ACFD4C4B07221A704B4B3F
:104BD00001225A71494B0122DA70484B01225A7066
:104BE000464B01229A71454B00221A71434B002219
:104BF0009A70424A042137480DF0DEFD404B1B8875
:104C00001A46042133480DF0D9FE0122042131480F
:104C10000DF020FF0023BB6101212E480DF004FFA1
:104C200001212C480DF067FDFCF7D6FE0346FB6022
:104C3000FB68194633480FF087FBFB684EF6177286
:104C4000934273D0FB684EF6137293426ED0FB68AA
:104C50004EF61472934269D0FB684EF61572934279
:104C600064D0FB684EF6167293425FD026480FF070
:104C7000F1FB00233B6155E0388B010874000020F4
:104C80004C8B010814180020748B01088C8B0108D0
:104C9000A48B0108BC8B0108DC8B0108008C010887
:104CA000248C0108A0B88101348C0108488C0108CB
:104CB000608C0108748C0108908C0108754EB19BC2
:104CC000FC18002000180140C48C0108D88C010891
:104CD00000240140000400402000002024000020A7
:104CE00028000020D0180020D21800208988888849
:104CF0000300002004000020050000200C18002004
:104D000008000020F08C0108FC8C010800200EF047
:104D10004BFB01200EF048FBC8200EF0C5FB3B69A1
:104D200001333B613B69312BF0D904E0FB68194644
:104D300092480FF009FB4FF480537B61F023FB7125
:104D40008F480FF001FBFB1D012279691846FCF723
:104D500023FC8C480FF0F8FABB1D01227969184634
:104D6000FCF7B6FCBA79FB799A4214D100200EF018
:104D7000D3FA01200EF0D0FA02200EF0CDFABB7962
:104D8000194681480FF0E0FA804B1B7819467E489F
:104D90000FF0DAFA0DE000200EF0E2FA01200EF03A
:104DA000DFFA02200EF0DCFABB79194678480FF0E2
:104DB000CBFA784B1878754B1978774B1A78774B74
:104DC0001C78774B1B7800932346FDF7AFF800F073
:104DD00041FC744B1B68184600F058FC01217248D6
:104DE0000BF077FB6F4B1B681846FDF7AFFC6F4B62
:104DF00001221A60B9E04FF400616D480DF0E9F846
:104E00006C4B00221A70FCF7E1FF6B48FDF72BF8A2
:104E100000210220FCF7E4FF6848FDF724F8FA209F
:104E20000EF0D0F904200EF09BFA05200EF074FA73
:104E3000802163480DF0DCF84FF4807160480DF07C
:104E4000D7F84FF400715E480DF0D2F80EF0DCF99F
:104E50000346002B40F08980564B01221A704FF414
:104E6000006153480DF0C4F84FF4805150480DF0E4
:104E7000B0F832200EF0A6F94FF480514C480DF0F6
:104E8000B7F8504B00221A700022032112200DF0B7
:104E900070FA4D4B01221A70FCF798FF4B48FCF753
:104EA000E2FF4FF47A700EF08DF904200EF034FA20
:104EB00005200EF055FA802141480DF08AF84FF494
:104EC000FA600EF07FF94FF480713D480DF081F8E3
:104ED0003F4B1B68022219463E48FCF7F9FB3D4B4D
:104EE0001B781B021AB23B4B5B781BB213431BB2FD
:104EF0009AB2394B1A804FF4FA600EF063F9374BCF
:104F00005B881A46344B1B88143B9A4234DB334B84
:104F10005B881A46304B1B8814339A422CDC2F4B8B
:104F20009B881A462C4B1B88143B9A4224DB2B4B44
:104F30009B881A46284B1B8814339A421CDC274B4B
:104F4000DB881A46244B1B88143B9A4214DB234B04
:104F5000DB881A46204B1B8814339A420CDC4FF432
:104F6000007117480DF035F806E0164B1B78DBB2E0
:104F7000012B3FF440AF03E100BF01E1148D0108B4
:104F8000388D0108548D0108708D0108240000201F
:104F9000908D010801000020030000200400002083
:104FA0000500002038130020002401404813002091
:104FB000001401404A000020B08D0108C08D010896
:104FC000001801404013002006000020D48D010885
:104FD00028000020D0180020D218002068180020D7
:104FE0006C4B1B89B3F5967F40F2C680694B5B8999
:104FF000B3F5967F40F2C080664B9B89B3F5967FF0
:1050000040F2BA804FF4006163480CF0E2FF634B5A
:1050100000221A70FCF7DAFE6148FCF724FF002139
:105020000220FCF7DDFE5F48FCF71DFFFA200EF0C2
:10503000C9F804200EF094F905200EF06DF98021D6
:1050400059480CF0D5FF4FF4807157480CF0D0FF51
:105050004FF4007154480CF0CBFF0EF0D5F8034626
:10506000002B40F08D804D4B01221A704FF40061EF
:1050700049480CF0BDFF4FF4805147480CF0A9FFA0
:1050800032200EF09FF84FF4805143480CF0B0FFEF
:10509000464B00221A700022032112200DF069F9FC
:1050A000434B01221A70FCF791FE4248FCF7DBFEED
:1050B0004FF47A700EF086F804200EF02DF90520DA
:1050C0000EF04EF9802138480CF083FF4FF4FA605F
:1050D0000EF078F84FF4807133480CF07AFF364BBD
:1050E0001B68022219463548FCF7F2FA334B1B784D
:1050F0001B021AB2314B5B781BB213431BB29AB23C
:105100002F4B1A804FF4FA600EF05CF8214B5B884D
:105110001A462B4B1B88143B9A4238DB1D4B5B888D
:105120001A46274B1B8814339A4230DC194B9B8854
:105130001A46234B1B88143B9A4228DB154B9B884D
:105140001A461F4B1B8814339A4220DC114BDB8814
:105150001A461B4B1B88143B9A4218DB0D4BDB880D
:105160001A46174B1B8814339A4210DC4FF4007117
:105170000D480CF02EFF0AE00C4B00221A7007E0DD
:105180000A4B1B78DBB2012B3FF42AAFD4E000BFFF
:10519000D2E000BF68180020001401404A0000203F
:1051A000E48D0108C08D0108001801404113002062
:1051B00006000020D48D010828000020D01800200F
:1051C000D21800204FF400618B480CF002FF8B4B8B
:1051D00000221A70FCF7FAFD8948FCF744FE002112
:1051E0000220FCF7FDFD8748FCF73DFEFA200DF09C
:1051F000E9FF04200EF0B4F805200EF08DF88021B0
:1052000081480CF0F5FE4FF480717F480CF0F0FE01
:105210004FF400717C480CF0EBFE0DF0F5FF0346F7
:10522000002B40F08980754B01221A704FF4006109
:1052300071480CF0DDFE4FF480516F480CF0C9FE50
:1052400032200DF0BFFF4FF480516B480CF0D0FEC0
:105250006E4B00221A700022032112200DF089F8F3
:105260006B4B01221A70FCF7B1FD6A48FCF7FBFD9D
:105270004FF47A700DF0A6FF04200EF04DF80520D3
:105280000EF06EF8802160480CF0A3FE4FF4FA6037
:105290000DF098FF4FF480715B480CF09AFE5E4B66
:1052A0001B68022219465D48FCF712FA5B4B1B781B
:1052B0001B021AB2594B5B781BB213431BB29AB252
:1052C000574B1A804FF4FA600DF07CFF554B5B880A
:1052D0001A46534B1B88143B9A4234DB514B5B8874
:1052E0001A464F4B1B8814339A422CDC4D4B9B883B
:1052F0001A464B4B1B88143B9A4224DB494B9B8834
:105300001A46474B1B8814339A421CDC454BDB88FA
:105310001A46434B1B88143B9A4214DB414BDB88F3
:105320001A463F4B1B8814339A420CDC4FF4007131
:1053300035480CF04EFE06E0344B1B78DBB2012BF7
:105340003FF440AF00E000BF314B1B78DBB2002BD5
:105350003FF43DAD00F07EF9334B1B68184600F07A
:1053600095F9314B1B681846FDF7F0F92E4B1A687A
:105370002E4B1B68D31AB3F57A7F0BD3FEF78EFA48
:10538000FEF7A0FBFEF7F6FEFEF784FD264B1B683A
:10539000264A1360012126480BF09BF80DF05EFFB2
:1053A0000346002B7FF413AD4FF4006112480CF05C
:1053B00010FE4FF4805110480CF00BFE32200DF01F
:1053C00001FF4FF480510C480CF012FE104B0022EC
:1053D0001A7080210C480CF00BFE4FF480710A48C3
:1053E0000CF006FE4FF4007107480CF001FE114B63
:1053F00000221A60EBE400BF001401404A000020C4
:10540000FC8D0108C08D01080018014042130020E6
:1054100006000020D48D010828000020D0180020AC
:10542000D2180020681800203813002050130020E4
:10543000002401404813002080B588B004AF02F07A
:1054400074FA774B1B781A06754B5B781B041A436A
:10545000734B9B781B021343714AD27813431A068D
:105460006F4B1B7819066E4B5B781B0419436C4B12
:105470009B781B020B436A49C9780B431B0203F458
:105480007F031A43664B1B781906654B5B781B0438
:105490001943634B9B781B020B436149C9780B434B
:1054A0001B0A03F47F431A435D4B1B7819065C4BC0
:1054B0005B781B0419435A4B9B781B020B435849DA
:1054C000C9780B431B0E1343FB60564B1B781A061F
:1054D000544B5B781B041A43524B9B781B021343BB
:1054E000504AD27813431A064E4B1B7819064D4B7F
:1054F0005B781B0419434B4B9B781B020B434949B8
:10550000C9780B431B0203F47F031A43454B1B78F6
:105510001906444B5B781B041943424B9B781B02D2
:105520000B434049C9780B431B0A03F47F431A43DA
:105530003C4B1B7819063B4B5B781B041943394BDA
:105540009B781B020B433749C9780B431B0E13434F
:10555000BB60354B1B781A06334B5B781B041A4330
:10556000314B9B781B0213432F4AD27813431A0600
:105570002D4B1B7819062C4B5B781B0419432A4BC7
:105580009B781B020B432849C9780B431B0203F489
:105590007F031A43244B1B781906234B5B781B04AB
:1055A0001943214B9B781B020B431F49C9780B43BE
:1055B0001B0A03F47F431A431B4B1B7819061A4B33
:1055C0005B781B041943184B9B781B020B4316494D
:1055D000C9780B431B0E13437B60144801F056F847
:1055E0003B1D07F1080207F10C0111480290114818
:1055F000019000200090104804F062F80346002B50
:1056000000D1FEE70C4804F0E1F90B4804F0EEF994
:105610000A49094804F0CEFA00BF1037BD4680BDE4
:105620005C00002064000020600000205400002086
:1056300089960008896A000850190020A9120008FC
:1056400080B500AF024801F0FBF900BF80BD00BF8C
:105650005019002080B500AFFFF7F2FF00BF80BDFA
:1056600080B400AF074B1B680A33064A1360064B31
:105670001B680A33044A136000BFBD465DF8047B13
:10568000704700BF381300205804012080B582B055
:1056900000AF78600AF0CCFA7A680A4B1B68D31A1C
:1056A000B3F5FA7F04D27A68064B1B689A4205D29A
:1056B0007B68044A13600448FBF796FD00BF083777
:1056C000BD4680BDD41900205019002080B483B09D
:1056D00000AF0346FB80FB881B021AB2FB881B0A43
:1056E0009BB21BB213431BB29BB218460C37BD468C
:1056F0005DF8047B704780B483B000AF78607B684E
:105700001A067B681B0203F47F031A437B681B0A9B
:1057100003F47F431A437B681B0E134318460C3770
:10572000BD465DF8047B704780B582B000AF7860FD
:105730002B497A6813465B001344DB000B441B685B
:10574000002B13D026497A6813465B001344DB0014
:105750000B441B68184604F09DFD21497A681346E6
:105760005B001344DB000B4400221A601C497A687A
:1057700013465B001344DB000B44143300221A7001
:1057800017497A6813465B001344DB000B4412335D
:1057900000221A8012497A6813465B001344DB002A
:1057A0000B44083300221A600D497A6813465B00E7
:1057B0001344DB000B44043300221A6008497A6862
:1057C00013465B001344DB000B440833054A0433E3
:1057D0001068186092889A8000BF0837BD4680BD67
:1057E000D8190020188E010880B582B000AF0023C0
:1057F0007B609AE051497A6813465B001344DB00F2
:105800000B4414331B78FB70FB78002B00F08A806C
:10581000FB78052B00F0868048497A6813465B00C8
:105820001344DB000B4412331B88013398B2434905
:105830007A6813465B001344DB000B4412330246C4
:105840001A803E497A6813465B001344DB000B4420
:1058500012331B88B3F5967F15D238497A68134600
:105860005B001344DB000B4414331B78012B0ED177
:1058700032497A6813465B001344DB000B44123351
:105880001B88042B03D97868FFF74EFF4AE02B49A9
:105890007A6813465B001344DB000B4414331B7817
:1058A000032B0AD125497A6813465B001344DB00B9
:1058B0000B44143304221A7034E020497A681346EA
:1058C0005B001344DB000B4414331B78042B0AD118
:1058D0001A497A6813465B001344DB000B44143307
:1058E00002221A701EE015497A6813465B001344C1
:1058F000DB000B4414331B78012B13D10F497A685A
:1059000013465B001344DB000B44083318687A68C5
:1059100013465B001344DB00084A13440433194662
:1059200000F0A8FD7B6801337B607B68092B7FF763
:1059300061AF00BF00BF0837BD4680BDD819002049
:1059400080B58AB000AFF8600B467A60FB720A231C
:105950003B840A237B840A23BB840023FB840A2321
:10596000FB830023BB8300237B8300233B83002333
:10597000FB84A4E0B7F92620834913465B00134457
:10598000DB000B4414331B78FB75B7F924300A2B6A
:1059900005D1FB7D002B02D1FB8CBB848BE0FB7D12
:1059A000002B00F08880FB68002B20D0FB68196872
:1059B000B7F92620744813465B001344DB00034408
:1059C00004331B68994212D17B68002B0CD0B7F9C5
:1059D00026206D4913465B001344DB000B4408335B
:1059E0001B687A689A4202D1B7F92630C8E0FB7D7D
:1059F000012B40D1B7F92620634913465B001344BD
:105A0000DB000B441B68002B1AD0B7F926205E4937
:105A100013465B001344DB000B4412331B88BA8B24
:105A20009A4248D8FB8CFB83B7F926205649134687
:105A30005B001344DB000B4412331B88BB833AE04A
:105A4000B7F92620504913465B001344DB000B4492
:105A500012331B887A8B9A422DD8FB8C3B84B7F982
:105A60002620494913465B001344DB000B441233E4
:105A70001B887B831FE0FB7D012B1CD9FB7D042B46
:105A800019D8B7F92620404913465B001344DB00C0
:105A90000B4412331B883A8B9A420CD8FB8C7B84C4
:105AA000B7F92620384913465B001344DB000B444A
:105AB00012331B883B83FB8C01339BB2FB84B7F909
:105AC0002630092B7FF756AFFB7A03F00203002B39
:105AD00008D1B7F924300A2B07D1FB7A03F0010370
